:100000000C9462000C948A000C948A000C948A0070
:100010000C948A000C948A000C948A000C948A0038
:100020000C948A000C948A000C948A000C948A0028
:100030000C948A000C948A000C948A000C948A0018
:100040000C946D020C948A000C943B020C941502E3
:100050000C948A000C948A000C948A000C948A00F8
:100060000C948A000C948A000000000025002800EF
:100070002B0000000000240027002A0000000000E0
:1000800023002600290004040404040404040202DA
:100090000202020203030303030301020408102007
:1000A0004080010204081020010204081020000012
:1000B0000008000201000003040700000000000027
:1000C0000000E40311241FBECFEFD8E0DEBFCDBF98
:1000D00011E0A0E0B1E0E2E3F8E002C005900D928B
:1000E000AC32B107D9F721E0ACE2B1E001C01D921A
:1000F000A23DB207E1F710E0C2E6D0E004C02197CC
:10010000FE010E941104C136D107C9F70E94B7024F
:100110000C9417040C940000AF92BF92CF92DF9220
:10012000EF92FF920F931F93CF93DF936C017B01AC
:100130008B01040F151FEB015E01AE18BF08C0173D
:10014000D10759F06991D601ED91FC910190F081B0
:10015000E02DC6010995892B79F7C501DF91CF9173
:100160001F910F91FF90EF90DF90CF90BF90AF90D5
:100170000895FC01538D448D252F30E0842F90E0AD
:10018000821B930B541710F0CF9608950197089592
:10019000FC01918D828D981761F0A28DAE0FBF2F5B
:1001A000B11D5D968C91928D9F5F9F73928F90E0B1
:1001B00008958FEF9FEF0895FC01918D828D981720
:1001C00031F0828DE80FF11D858D90E008958FEF5D
:1001D0009FEF0895FC01918D228D892F90E0805C26
:1001E0009F4F821B91098F739927089585E391E0B2
:1001F0000E94EA0021E0892B09F420E0822F089573
:1002000080E090E0892B29F00E94F60081110C9487
:1002100000000895FC01A48DA80FB92FB11DA35AA9
:10022000BF4F2C91848D90E001968F739927848F16
:10023000A689B7892C93A089B1898C918370806439
:100240008C93938D848D981306C00288F389E02DDA
:1002500080818F7D80830895EF92FF920F931F938B
:10026000CF93DF93EC0181E0888F9B8D8C8D981369
:100270001AC0E889F989808185FF15C09FB7F89475
:10028000EE89FF896083E889F989808183708064C1
:1002900080839FBF81E090E0DF91CF911F910F910C
:1002A000FF90EF900895F62E0B8D10E00F5F1F4F1B
:1002B0000F731127E02E8C8D8E110CC00FB607FC2A
:1002C000FACFE889F989808185FFF5CFCE010E94B8
:1002D0000A01F1CFEB8DEC0FFD2FF11DE35AFF4F1B
:1002E000F0829FB7F8940B8FEA89FB898081806246
:1002F000CFCFCF93DF93EC01888D8823B9F0AA8903
:10030000BB89E889F9898C9185FD03C0808186FDD0
:100310000DC00FB607FCF7CF8C9185FFF2CF80811F
:1003200085FFEDCFCE010E940A01E9CFDF91CF9189
:100330000895833081F028F4813099F08230A9F05B
:1003400008958730A9F08830C9F08430B1F48091E5
:1003500080008F7D03C0809180008F778093800024
:10036000089584B58F7784BD089584B58F7DFBCFC4
:100370008091B0008F778093B00008958091B00095
:100380008F7DF9CF1F93CF93DF93282F30E0F901B2
:10039000E255FF4F8491F901E656FF4FD491F901E0
:1003A000EA57FF4FC491CC23A9F0162F81110E9468
:1003B0009901EC2FF0E0EE0FFF1FE859FF4FA591D8
:1003C000B4918FB7F894EC91111108C0D095DE2349
:1003D000DC938FBFDF91CF911F910895DE2BF8CF73
:1003E0003FB7F8948091310190913201A09133018F
:1003F000B091340126B5A89B05C02F3F19F0019696
:10040000A11DB11D3FBFBA2FA92F982F8827BC016E
:10041000CD01620F711D811D911D42E0660F771F96
:10042000881F991F4A95D1F708951F920F920FB612
:100430000F9211242F933F934F935F936F937F936A
:100440008F939F93AF93BF93EF93FF9385E391E0D7
:100450000E940A01FF91EF91BF91AF919F918F91FF
:100460007F916F915F914F913F912F910F900FBEB0
:100470000F901F9018951F920F920FB60F92112494
:100480002F938F939F93EF93FF93E0914501F0910A
:1004900046018081E0914B01F0914C0182FD1BC02F
:1004A000908180914E018F5F8F7320914F01821751
:1004B00041F0E0914E01F0E0EB5CFE4F958F8093B0
:1004C0004E01FF91EF919F918F912F910F900FBE51
:1004D0000F901F9018958081F4CF1F920F920FB646
:1004E0000F9211242F933F938F939F93AF93BF93BA
:1004F00080912D0190912E01A0912F01B09130019A
:1005000030912C0123E0230F2D3758F50196A11DC2
:10051000B11D20932C0180932D0190932E01A09367
:100520002F01B09330018091310190913201A0915F
:100530003301B09134010196A11DB11D80933101A9
:1005400090933201A0933301B0933401BF91AF91E6
:100550009F918F913F912F910F900FBE0F901F9001
:10056000189526E8230F0296A11DB11DD2CF7894CD
:1005700084B5826084BD84B5816084BD85B58260A8
:1005800085BD85B5816085BD80916E008160809359
:100590006E001092810080918100826080938100C2
:1005A00080918100816080938100809180008160D2
:1005B000809380008091B10084608093B10080912D
:1005C000B00081608093B00080917A008460809355
:1005D0007A0080917A00826080937A0080917A001C
:1005E000816080937A0080917A00806880937A009D
:1005F0001092C100C2E1D1E006E111E0899190E0E2
:10060000FC01E656FF4F24918A579F4FFC018491CD
:10061000882399F090E0880F991FFC01EE58FF4F56
:10062000A591B491FC01E859FF4F859194918FB742
:10063000F894EC91E22BEC938FBF60E0FE013197D0
:1006400080810E94C2010C171D07C1F6E09145018F
:10065000F091460182E08083E0914101F0914201F6
:100660001082E0914301F09144018FEC808310925D
:100670004D01E0914901F0914A0186E08083E091CB
:100680004701F0914801808180618083E0914701BA
:10069000F0914801808188608083E0914701F0916A
:1006A0004801808180688083E0914701F091480192
:1006B00080818F7D808342E150E066E171E085E3D7
:1006C00091E00E948C0042E050E069E271E085E335
:1006D00091E00E948C0020E0822E20E0922E85E3A3
:1006E00091E00E94EA00181619060CF061C085E33B
:1006F00091E00E94C80010E000E0C82F880FDD0BD9
:100700005E01F0E3AF1AB108CF51DF4F0F5F1F4F0B
:10071000A016B10609F048C0E8802E2D30E0F9019E
:10072000E255FF4F8491F901E656FF4FF490F9012D
:10073000EA57FF4FD490DD2079F081110E94990192
:10074000ED2DF0E0EE0FFF1FE458FF4FA591B4919F
:10075000EC91FE2260E009F461E08E2D0E94C2015E
:100760000E94F0012B013C018AE0C82ED12CE12C23
:10077000F12C0E94F0016419750986099709683EF9
:10078000734081059105A8F321E0C21AD108E10860
:10079000F10888EE480E83E0581E611C711CC114DC
:1007A000D104E104F10429F70430110509F0AECFBA
:1007B0008114910409F493CF0E94F600882309F470
:1007C0008ECF0E9400008BCFE5E3F1E0138212820E
:1007D00088EE93E0A0E0B0E084839583A683B7839E
:1007E00084E091E09183808385EC90E09587848715
:1007F00084EC90E09787868780EC90E0918B808BEB
:1008000081EC90E0938B828B82EC90E0958B848BD3
:1008100086EC90E0978B868B118E128E138E148E41
:100820000895EE0FFF1F0590F491E02D0994F894C0
:02083000FFCFF8
:10083200000000002C018C00B9007901EA00C80018
:10084200DC000A0B0C0D4269656E76656E69646F99
:0C085200204D616768203B44000D0A0047
:00000001FF
